{
  "_format": "hh-sol-artifact-1",
  "contractName": "NFTMarketplace",
  "sourceName": "contracts/NFTMarketplace.sol",
  "abi": [
    {
      "inputs": [],
      "stateMutability": "nonpayable",
      "type": "constructor"
    },
    {
      "anonymous": false,
      "inputs": [
        {
          "indexed": true,
          "internalType": "address",
          "name": "owner",
          "type": "address"
        },
        {
          "indexed": true,
          "internalType": "address",
          "name": "approved",
          "type": "address"
        },
        {
          "indexed": true,
          "internalType": "uint256",
          "name": "tokenId",
          "type": "uint256"
        }
      ],
      "name": "Approval",
      "type": "event"
    },
    {
      "anonymous": false,
      "inputs": [
        {
          "indexed": true,
          "internalType": "address",
          "name": "owner",
          "type": "address"
        },
        {
          "indexed": true,
          "internalType": "address",
          "name": "operator",
          "type": "address"
        },
        {
          "indexed": false,
          "internalType": "bool",
          "name": "approved",
          "type": "bool"
        }
      ],
      "name": "ApprovalForAll",
      "type": "event"
    },
    {
      "anonymous": false,
      "inputs": [
        {
          "indexed": true,
          "internalType": "address",
          "name": "from",
          "type": "address"
        },
        {
          "indexed": true,
          "internalType": "address",
          "name": "to",
          "type": "address"
        },
        {
          "indexed": true,
          "internalType": "uint256",
          "name": "tokenId",
          "type": "uint256"
        }
      ],
      "name": "Transfer",
      "type": "event"
    },
    {
      "inputs": [
        {
          "internalType": "address",
          "name": "to",
          "type": "address"
        },
        {
          "internalType": "uint256",
          "name": "tokenId",
          "type": "uint256"
        }
      ],
      "name": "approve",
      "outputs": [],
      "stateMutability": "nonpayable",
      "type": "function"
    },
    {
      "inputs": [
        {
          "internalType": "address",
          "name": "owner",
          "type": "address"
        }
      ],
      "name": "balanceOf",
      "outputs": [
        {
          "internalType": "uint256",
          "name": "",
          "type": "uint256"
        }
      ],
      "stateMutability": "view",
      "type": "function"
    },
    {
      "inputs": [
        {
          "internalType": "string",
          "name": "tokenURI",
          "type": "string"
        },
        {
          "internalType": "uint256",
          "name": "price",
          "type": "uint256"
        }
      ],
      "name": "createToken",
      "outputs": [
        {
          "internalType": "uint256",
          "name": "",
          "type": "uint256"
        }
      ],
      "stateMutability": "payable",
      "type": "function"
    },
    {
      "inputs": [
        {
          "internalType": "uint256",
          "name": "tokenId",
          "type": "uint256"
        }
      ],
      "name": "executeSale",
      "outputs": [],
      "stateMutability": "payable",
      "type": "function"
    },
    {
      "inputs": [],
      "name": "getAllNFTs",
      "outputs": [
        {
          "components": [
            {
              "internalType": "uint256",
              "name": "tokenId",
              "type": "uint256"
            },
            {
              "internalType": "address payable",
              "name": "owner",
              "type": "address"
            },
            {
              "internalType": "address payable",
              "name": "seller",
              "type": "address"
            },
            {
              "internalType": "uint256",
              "name": "price",
              "type": "uint256"
            },
            {
              "internalType": "bool",
              "name": "currentlyListed",
              "type": "bool"
            }
          ],
          "internalType": "struct NFTMarketplace.ListedToken[]",
          "name": "",
          "type": "tuple[]"
        }
      ],
      "stateMutability": "view",
      "type": "function"
    },
    {
      "inputs": [
        {
          "internalType": "uint256",
          "name": "tokenId",
          "type": "uint256"
        }
      ],
      "name": "getApproved",
      "outputs": [
        {
          "internalType": "address",
          "name": "",
          "type": "address"
        }
      ],
      "stateMutability": "view",
      "type": "function"
    },
    {
      "inputs": [],
      "name": "getCurrentTokenId",
      "outputs": [
        {
          "internalType": "uint256",
          "name": "",
          "type": "uint256"
        }
      ],
      "stateMutability": "view",
      "type": "function"
    },
    {
      "inputs": [],
      "name": "getLastestIdToListedToken",
      "outputs": [
        {
          "components": [
            {
              "internalType": "uint256",
              "name": "tokenId",
              "type": "uint256"
            },
            {
              "internalType": "address payable",
              "name": "owner",
              "type": "address"
            },
            {
              "internalType": "address payable",
              "name": "seller",
              "type": "address"
            },
            {
              "internalType": "uint256",
              "name": "price",
              "type": "uint256"
            },
            {
              "internalType": "bool",
              "name": "currentlyListed",
              "type": "bool"
            }
          ],
          "internalType": "struct NFTMarketplace.ListedToken",
          "name": "",
          "type": "tuple"
        }
      ],
      "stateMutability": "view",
      "type": "function"
    },
    {
      "inputs": [],
      "name": "getListPrice",
      "outputs": [
        {
          "internalType": "uint256",
          "name": "",
          "type": "uint256"
        }
      ],
      "stateMutability": "view",
      "type": "function"
    },
    {
      "inputs": [
        {
          "internalType": "uint256",
          "name": "tokenId",
          "type": "uint256"
        }
      ],
      "name": "getListedForTokenId",
      "outputs": [
        {
          "components": [
            {
              "internalType": "uint256",
              "name": "tokenId",
              "type": "uint256"
            },
            {
              "internalType": "address payable",
              "name": "owner",
              "type": "address"
            },
            {
              "internalType": "address payable",
              "name": "seller",
              "type": "address"
            },
            {
              "internalType": "uint256",
              "name": "price",
              "type": "uint256"
            },
            {
              "internalType": "bool",
              "name": "currentlyListed",
              "type": "bool"
            }
          ],
          "internalType": "struct NFTMarketplace.ListedToken",
          "name": "",
          "type": "tuple"
        }
      ],
      "stateMutability": "view",
      "type": "function"
    },
    {
      "inputs": [],
      "name": "getMyNFTs",
      "outputs": [
        {
          "components": [
            {
              "internalType": "uint256",
              "name": "tokenId",
              "type": "uint256"
            },
            {
              "internalType": "address payable",
              "name": "owner",
              "type": "address"
            },
            {
              "internalType": "address payable",
              "name": "seller",
              "type": "address"
            },
            {
              "internalType": "uint256",
              "name": "price",
              "type": "uint256"
            },
            {
              "internalType": "bool",
              "name": "currentlyListed",
              "type": "bool"
            }
          ],
          "internalType": "struct NFTMarketplace.ListedToken[]",
          "name": "",
          "type": "tuple[]"
        }
      ],
      "stateMutability": "view",
      "type": "function"
    },
    {
      "inputs": [
        {
          "internalType": "address",
          "name": "owner",
          "type": "address"
        },
        {
          "internalType": "address",
          "name": "operator",
          "type": "address"
        }
      ],
      "name": "isApprovedForAll",
      "outputs": [
        {
          "internalType": "bool",
          "name": "",
          "type": "bool"
        }
      ],
      "stateMutability": "view",
      "type": "function"
    },
    {
      "inputs": [],
      "name": "name",
      "outputs": [
        {
          "internalType": "string",
          "name": "",
          "type": "string"
        }
      ],
      "stateMutability": "view",
      "type": "function"
    },
    {
      "inputs": [
        {
          "internalType": "uint256",
          "name": "tokenId",
          "type": "uint256"
        }
      ],
      "name": "ownerOf",
      "outputs": [
        {
          "internalType": "address",
          "name": "",
          "type": "address"
        }
      ],
      "stateMutability": "view",
      "type": "function"
    },
    {
      "inputs": [
        {
          "internalType": "address",
          "name": "from",
          "type": "address"
        },
        {
          "internalType": "address",
          "name": "to",
          "type": "address"
        },
        {
          "internalType": "uint256",
          "name": "tokenId",
          "type": "uint256"
        }
      ],
      "name": "safeTransferFrom",
      "outputs": [],
      "stateMutability": "nonpayable",
      "type": "function"
    },
    {
      "inputs": [
        {
          "internalType": "address",
          "name": "from",
          "type": "address"
        },
        {
          "internalType": "address",
          "name": "to",
          "type": "address"
        },
        {
          "internalType": "uint256",
          "name": "tokenId",
          "type": "uint256"
        },
        {
          "internalType": "bytes",
          "name": "data",
          "type": "bytes"
        }
      ],
      "name": "safeTransferFrom",
      "outputs": [],
      "stateMutability": "nonpayable",
      "type": "function"
    },
    {
      "inputs": [
        {
          "internalType": "address",
          "name": "operator",
          "type": "address"
        },
        {
          "internalType": "bool",
          "name": "approved",
          "type": "bool"
        }
      ],
      "name": "setApprovalForAll",
      "outputs": [],
      "stateMutability": "nonpayable",
      "type": "function"
    },
    {
      "inputs": [
        {
          "internalType": "bytes4",
          "name": "interfaceId",
          "type": "bytes4"
        }
      ],
      "name": "supportsInterface",
      "outputs": [
        {
          "internalType": "bool",
          "name": "",
          "type": "bool"
        }
      ],
      "stateMutability": "view",
      "type": "function"
    },
    {
      "inputs": [],
      "name": "symbol",
      "outputs": [
        {
          "internalType": "string",
          "name": "",
          "type": "string"
        }
      ],
      "stateMutability": "view",
      "type": "function"
    },
    {
      "inputs": [
        {
          "internalType": "uint256",
          "name": "tokenId",
          "type": "uint256"
        }
      ],
      "name": "tokenURI",
      "outputs": [
        {
          "internalType": "string",
          "name": "",
          "type": "string"
        }
      ],
      "stateMutability": "view",
      "type": "function"
    },
    {
      "inputs": [
        {
          "internalType": "address",
          "name": "from",
          "type": "address"
        },
        {
          "internalType": "address",
          "name": "to",
          "type": "address"
        },
        {
          "internalType": "uint256",
          "name": "tokenId",
          "type": "uint256"
        }
      ],
      "name": "transferFrom",
      "outputs": [],
      "stateMutability": "nonpayable",
      "type": "function"
    },
    {
      "inputs": [
        {
          "internalType": "uint256",
          "name": "_listPrice",
          "type": "uint256"
        }
      ],
      "name": "updateListPrice",
      "outputs": [],
      "stateMutability": "payable",
      "type": "function"
    }
  ],
  "bytecode": "0x6080604052662386f26fc10000600a553480156200001c57600080fd5b50604080518082018252600e81526d4e46544d61726b6574706c61636560901b6020808301918252835180850190945260048452634e46544d60e01b9084015281519192916200006f91600091620000a0565b50805162000085906001906020840190620000a0565b5050600780546001600160a01b031916331790555062000183565b828054620000ae9062000146565b90600052602060002090601f016020900481019282620000d257600085556200011d565b82601f10620000ed57805160ff19168380011785556200011d565b828001600101855582156200011d579182015b828111156200011d57825182559160200191906001019062000100565b506200012b9291506200012f565b5090565b5b808211156200012b576000815560010162000130565b600181811c908216806200015b57607f821691505b602082108114156200017d57634e487b7160e01b600052602260045260246000fd5b50919050565b61200480620001936000396000f3fe6080604052600436106101355760003560e01c806372b3b620116100ab578063a22cb4651161006f578063a22cb46514610342578063b88d4fde14610362578063c322579c14610382578063c87b56dd14610395578063e0391b09146103b5578063e985e9c5146103ca57600080fd5b806372b3b620146102c557806395d89b41146102d857806398c3df16146102ed5780639b1225c41461031a5780639b2468481461032d57600080fd5b806342842e0e116100fd57806342842e0e1461020b578063561892361461022b578063629cb2e41461024e5780636352211e1461027057806368f1945f1461029057806370a08231146102a557600080fd5b806301ffc9a71461013a57806306fdde031461016f578063081812fc14610191578063095ea7b3146101c957806323b872dd146101eb575b600080fd5b34801561014657600080fd5b5061015a610155366004611c10565b610413565b60405190151581526020015b60405180910390f35b34801561017b57600080fd5b50610184610465565b6040516101669190611ddc565b34801561019d57600080fd5b506101b16101ac366004611c9e565b6104f7565b6040516001600160a01b039091168152602001610166565b3480156101d557600080fd5b506101e96101e4366004611be7565b61051e565b005b3480156101f757600080fd5b506101e9610206366004611af9565b610639565b34801561021757600080fd5b506101e9610226366004611af9565b61066a565b34801561023757600080fd5b50610240610685565b604051908152602001610166565b34801561025a57600080fd5b50610263610695565b6040516101669190611d8e565b34801561027c57600080fd5b506101b161028b366004611c9e565b6108d8565b34801561029c57600080fd5b50600a54610240565b3480156102b157600080fd5b506102406102c0366004611aad565b610938565b6102406102d3366004611c48565b6109be565b3480156102e457600080fd5b50610184610aac565b3480156102f957600080fd5b5061030d610308366004611c9e565b610abb565b6040516101669190611e8f565b6101e9610328366004611c9e565b610b25565b34801561033957600080fd5b5061030d610c89565b34801561034e57600080fd5b506101e961035d366004611bad565b610d00565b34801561036e57600080fd5b506101e961037d366004611b34565b610d0f565b6101e9610390366004611c9e565b610d41565b3480156103a157600080fd5b506101846103b0366004611c9e565b610db0565b3480156103c157600080fd5b50610263610ec1565b3480156103d657600080fd5b5061015a6103e5366004611ac7565b6001600160a01b03918216600090815260056020908152604080832093909416825291909152205460ff1690565b60006001600160e01b031982166380ac58cd60e01b148061044457506001600160e01b03198216635b5e139f60e01b145b8061045f57506301ffc9a760e01b6001600160e01b03198316145b92915050565b60606000805461047490611f0c565b80601f01602080910402602001604051908101604052809291908181526020018280546104a090611f0c565b80156104ed5780601f106104c2576101008083540402835291602001916104ed565b820191906000526020600020905b8154815290600101906020018083116104d057829003601f168201915b5050505050905090565b600061050282611008565b506000908152600460205260409020546001600160a01b031690565b6000610529826108d8565b9050806001600160a01b0316836001600160a01b0316141561059c5760405162461bcd60e51b815260206004820152602160248201527f4552433732313a20617070726f76616c20746f2063757272656e74206f776e656044820152603960f91b60648201526084015b60405180910390fd5b336001600160a01b03821614806105b857506105b881336103e5565b61062a5760405162461bcd60e51b815260206004820152603e60248201527f4552433732313a20617070726f76652063616c6c6572206973206e6f7420746f60448201527f6b656e206f776e6572206e6f7220617070726f76656420666f7220616c6c00006064820152608401610593565b610634838361106a565b505050565b61064333826110d8565b61065f5760405162461bcd60e51b815260040161059390611e41565b610634838383611156565b61063483838360405180602001604052806000815250610d0f565b600061069060085490565b905090565b606060006106a260085490565b905060008080805b8481101561073a5733600b60006106c2846001611e9d565b81526020810191909152604001600020600101546001600160a01b03161480610715575033600b60006106f6846001611e9d565b81526020810191909152604001600020600201546001600160a01b0316145b1561072857610725600185611e9d565b93505b8061073281611f47565b9150506106aa565b5060008367ffffffffffffffff81111561076457634e487b7160e01b600052604160045260246000fd5b60405190808252806020026020018201604052801561079d57816020015b61078a611954565b8152602001906001900390816107825790505b50905060005b858110156108ce5733600b60006107bb846001611e9d565b81526020810191909152604001600020600101546001600160a01b0316148061080e575033600b60006107ef846001611e9d565b81526020810191909152604001600020600201546001600160a01b0316145b156108bc5761081e816001611e9d565b6000818152600b6020908152604091829020825160a0810184528154815260018201546001600160a01b039081169382019390935260028201549092169282019290925260038201546060820152600482015460ff1615156080820152845192955090918490879081106108a257634e487b7160e01b600052603260045260246000fd5b60209081029190910101526108b8600186611e9d565b9450505b806108c681611f47565b9150506107a3565b5095945050505050565b6000818152600260205260408120546001600160a01b03168061045f5760405162461bcd60e51b8152602060048201526018602482015277115490cdcc8c4e881a5b9d985b1a59081d1bdad95b88125160421b6044820152606401610593565b60006001600160a01b0382166109a25760405162461bcd60e51b815260206004820152602960248201527f4552433732313a2061646472657373207a65726f206973206e6f7420612076616044820152683634b21037bbb732b960b91b6064820152608401610593565b506001600160a01b031660009081526003602052604090205490565b6000600a543414610a115760405162461bcd60e51b815260206004820152601960248201527f53656e6420656e6f75676820657468657220746f206c697374000000000000006044820152606401610593565b60008211610a6c5760405162461bcd60e51b815260206004820152602260248201527f4d616b652073757265207468652070726963652069736e2774206e6567617469604482015261766560f01b6064820152608401610593565b610a7a600880546001019055565b6000610a8560085490565b9050610a9133826112f2565b610a9b818561130c565b610aa581846113a6565b9392505050565b60606001805461047490611f0c565b610ac3611954565b506000908152600b6020908152604091829020825160a0810184528154815260018201546001600160a01b03908116938201939093526002820154909216928201929092526003820154606082015260049091015460ff161515608082015290565b6000818152600b6020526040902060038101546002909101546001600160a01b0316348214610bbe576040805162461bcd60e51b81526020600482015260248101919091527f506c65617365207375626d6974207468652061736b696e67207072696365206960448201527f6e206f7264657220746f20636f6d706c657465207468652070757263686173656064820152608401610593565b6000838152600b6020526040902060048101805460ff1916600117905560020180546001600160a01b03191633179055610bfc600980546001019055565b610c07303385611156565b610c11308461051e565b600754600a546040516001600160a01b039092169181156108fc0291906000818181858888f19350505050158015610c4d573d6000803e3d6000fd5b506040516001600160a01b038216903480156108fc02916000818181858888f19350505050158015610c83573d6000803e3d6000fd5b50505050565b610c91611954565b600b6000610c9e60085490565b81526020808201929092526040908101600020815160a0810183528154815260018201546001600160a01b0390811694820194909452600282015490931691830191909152600381015460608301526004015460ff1615156080820152919050565b610d0b338383611443565b5050565b610d1933836110d8565b610d355760405162461bcd60e51b815260040161059390611e41565b610c8384848484611512565b6007546001600160a01b03163314610dab5760405162461bcd60e51b815260206004820152602760248201527f6f6e6c79206f776e65722063616e2075706461746520746865206c697374696e6044820152666720707269636560c81b6064820152608401610593565b600a55565b6060610dbb82611008565b60008281526006602052604081208054610dd490611f0c565b80601f0160208091040260200160405190810160405280929190818152602001828054610e0090611f0c565b8015610e4d5780601f10610e2257610100808354040283529160200191610e4d565b820191906000526020600020905b815481529060010190602001808311610e3057829003601f168201915b505050505090506000610e6b60408051602081019091526000815290565b9050805160001415610e7e575092915050565b815115610eb0578082604051602001610e98929190611d22565b60405160208183030381529060405292505050919050565b610eb984611545565b949350505050565b60606000610ece60085490565b905060008167ffffffffffffffff811115610ef957634e487b7160e01b600052604160045260246000fd5b604051908082528060200260200182016040528015610f3257816020015b610f1f611954565b815260200190600190039081610f175790505b5090506000805b83811015610fff576000610f4e826001611e9d565b6000818152600b6020908152604091829020825160a0810184528154815260018201546001600160a01b039081169382019390935260028201549092169282019290925260038201546060820152600482015460ff161515608082015286519293509091869086908110610fd257634e487b7160e01b600052603260045260246000fd5b6020908102919091010152610fe8600185611e9d565b935050508080610ff790611f47565b915050610f39565b50909392505050565b6000818152600260205260409020546001600160a01b03166110675760405162461bcd60e51b8152602060048201526018602482015277115490cdcc8c4e881a5b9d985b1a59081d1bdad95b88125160421b6044820152606401610593565b50565b600081815260046020526040902080546001600160a01b0319166001600160a01b038416908117909155819061109f826108d8565b6001600160a01b03167f8c5be1e5ebec7d5bd14f71427d1e84f3dd0314c0f7b2291e5b200ac8c7c3b92560405160405180910390a45050565b6000806110e4836108d8565b9050806001600160a01b0316846001600160a01b0316148061112b57506001600160a01b0380821660009081526005602090815260408083209388168352929052205460ff165b80610eb95750836001600160a01b0316611144846104f7565b6001600160a01b031614949350505050565b826001600160a01b0316611169826108d8565b6001600160a01b0316146111cd5760405162461bcd60e51b815260206004820152602560248201527f4552433732313a207472616e736665722066726f6d20696e636f72726563742060448201526437bbb732b960d91b6064820152608401610593565b6001600160a01b03821661122f5760405162461bcd60e51b8152602060048201526024808201527f4552433732313a207472616e7366657220746f20746865207a65726f206164646044820152637265737360e01b6064820152608401610593565b61123a60008261106a565b6001600160a01b0383166000908152600360205260408120805460019290611263908490611ec9565b90915550506001600160a01b0382166000908152600360205260408120805460019290611291908490611e9d565b909155505060008181526002602052604080822080546001600160a01b0319166001600160a01b0386811691821790925591518493918716917fddf252ad1be2c89b69c2b068fc378daa952ba7f163c4a11628f55a4df523b3ef91a4505050565b610d0b8282604051806020016040528060008152506115b8565b6000828152600260205260409020546001600160a01b03166113875760405162461bcd60e51b815260206004820152602e60248201527f45524337323155524953746f726167653a2055524920736574206f66206e6f6e60448201526d32bc34b9ba32b73a103a37b5b2b760911b6064820152608401610593565b6000828152600660209081526040909120825161063492840190611982565b6040805160a081018252838152306020808301828152338486018181526060860188815260016080880181815260008c8152600b9097529890952096518755925193860180546001600160a01b039586166001600160a01b03199182161790915590516002870180549190951691161790925551600384015592516004909201805492151560ff1990931692909217909155610d0b919084611156565b816001600160a01b0316836001600160a01b031614156114a55760405162461bcd60e51b815260206004820152601960248201527f4552433732313a20617070726f766520746f2063616c6c6572000000000000006044820152606401610593565b6001600160a01b03838116600081815260056020908152604080832094871680845294825291829020805460ff191686151590811790915591519182527f17307eab39ab6107e8899845ad3d59bd9653f200f220920489ca2b5937696c31910160405180910390a3505050565b61151d848484611156565b611529848484846115eb565b610c835760405162461bcd60e51b815260040161059390611def565b606061155082611008565b600061156760408051602081019091526000815290565b905060008151116115875760405180602001604052806000815250610aa5565b80611591846116f8565b6040516020016115a2929190611d22565b6040516020818303038152906040529392505050565b6115c28383611812565b6115cf60008484846115eb565b6106345760405162461bcd60e51b815260040161059390611def565b60006001600160a01b0384163b156116ed57604051630a85bd0160e11b81526001600160a01b0385169063150b7a029061162f903390899088908890600401611d51565b602060405180830381600087803b15801561164957600080fd5b505af1925050508015611679575060408051601f3d908101601f1916820190925261167691810190611c2c565b60015b6116d3573d8080156116a7576040519150601f19603f3d011682016040523d82523d6000602084013e6116ac565b606091505b5080516116cb5760405162461bcd60e51b815260040161059390611def565b805181602001fd5b6001600160e01b031916630a85bd0160e11b149050610eb9565b506001949350505050565b60608161171c5750506040805180820190915260018152600360fc1b602082015290565b8160005b8115611746578061173081611f47565b915061173f9050600a83611eb5565b9150611720565b60008167ffffffffffffffff81111561176f57634e487b7160e01b600052604160045260246000fd5b6040519080825280601f01601f191660200182016040528015611799576020820181803683370190505b5090505b8415610eb9576117ae600183611ec9565b91506117bb600a86611f62565b6117c6906030611e9d565b60f81b8183815181106117e957634e487b7160e01b600052603260045260246000fd5b60200101906001600160f81b031916908160001a90535061180b600a86611eb5565b945061179d565b6001600160a01b0382166118685760405162461bcd60e51b815260206004820181905260248201527f4552433732313a206d696e7420746f20746865207a65726f20616464726573736044820152606401610593565b6000818152600260205260409020546001600160a01b0316156118cd5760405162461bcd60e51b815260206004820152601c60248201527f4552433732313a20746f6b656e20616c7265616479206d696e746564000000006044820152606401610593565b6001600160a01b03821660009081526003602052604081208054600192906118f6908490611e9d565b909155505060008181526002602052604080822080546001600160a01b0319166001600160a01b03861690811790915590518392907fddf252ad1be2c89b69c2b068fc378daa952ba7f163c4a11628f55a4df523b3ef908290a45050565b6040805160a08101825260008082526020820181905291810182905260608101829052608081019190915290565b82805461198e90611f0c565b90600052602060002090601f0160209004810192826119b057600085556119f6565b82601f106119c957805160ff19168380011785556119f6565b828001600101855582156119f6579182015b828111156119f65782518255916020019190600101906119db565b50611a02929150611a06565b5090565b5b80821115611a025760008155600101611a07565b600067ffffffffffffffff80841115611a3657611a36611fa2565b604051601f8501601f19908116603f01168101908282118183101715611a5e57611a5e611fa2565b81604052809350858152868686011115611a7757600080fd5b858560208301376000602087830101525050509392505050565b80356001600160a01b0381168114611aa857600080fd5b919050565b600060208284031215611abe578081fd5b610aa582611a91565b60008060408385031215611ad9578081fd5b611ae283611a91565b9150611af060208401611a91565b90509250929050565b600080600060608486031215611b0d578081fd5b611b1684611a91565b9250611b2460208501611a91565b9150604084013590509250925092565b60008060008060808587031215611b49578081fd5b611b5285611a91565b9350611b6060208601611a91565b925060408501359150606085013567ffffffffffffffff811115611b82578182fd5b8501601f81018713611b92578182fd5b611ba187823560208401611a1b565b91505092959194509250565b60008060408385031215611bbf578182fd5b611bc883611a91565b915060208301358015158114611bdc578182fd5b809150509250929050565b60008060408385031215611bf9578182fd5b611c0283611a91565b946020939093013593505050565b600060208284031215611c21578081fd5b8135610aa581611fb8565b600060208284031215611c3d578081fd5b8151610aa581611fb8565b60008060408385031215611c5a578182fd5b823567ffffffffffffffff811115611c70578283fd5b8301601f81018513611c80578283fd5b611c8f85823560208401611a1b565b95602094909401359450505050565b600060208284031215611caf578081fd5b5035919050565b60008151808452611cce816020860160208601611ee0565b601f01601f19169290920160200192915050565b805182526020808201516001600160a01b039081169184019190915260408083015190911690830152606080820151908301526080908101511515910152565b60008351611d34818460208801611ee0565b835190830190611d48818360208801611ee0565b01949350505050565b6001600160a01b0385811682528416602082015260408101839052608060608201819052600090611d8490830184611cb6565b9695505050505050565b6020808252825182820181905260009190848201906040850190845b81811015611dd057611dbd838551611ce2565b9284019260a09290920191600101611daa565b50909695505050505050565b602081526000610aa56020830184611cb6565b60208082526032908201527f4552433732313a207472616e7366657220746f206e6f6e20455243373231526560408201527131b2b4bb32b91034b6b83632b6b2b73a32b960711b606082015260800190565b6020808252602e908201527f4552433732313a2063616c6c6572206973206e6f7420746f6b656e206f776e6560408201526d1c881b9bdc88185c1c1c9bdd995960921b606082015260800190565b60a0810161045f8284611ce2565b60008219821115611eb057611eb0611f76565b500190565b600082611ec457611ec4611f8c565b500490565b600082821015611edb57611edb611f76565b500390565b60005b83811015611efb578181015183820152602001611ee3565b83811115610c835750506000910152565b600181811c90821680611f2057607f821691505b60208210811415611f4157634e487b7160e01b600052602260045260246000fd5b50919050565b6000600019821415611f5b57611f5b611f76565b5060010190565b600082611f7157611f71611f8c565b500690565b634e487b7160e01b600052601160045260246000fd5b634e487b7160e01b600052601260045260246000fd5b634e487b7160e01b600052604160045260246000fd5b6001600160e01b03198116811461106757600080fdfea2646970667358221220c06f82c7a4febe715cd083ee5ae433f947a22eac6562fb4e188cc2ff60f95e4e64736f6c63430008040033",
  "linkReferences": {},
  "deployedLinkReferences": {}
}